{
  "_format": "hh-sol-artifact-1",
  "contractName": "Identity",
  "sourceName": "contracts/IDentity.sol",
  "abi": [
    {
      "inputs": [],
      "stateMutability": "nonpayable",
      "type": "constructor"
    },
    {
      "anonymous": false,
      "inputs": [
        {
          "indexed": true,
          "internalType": "address",
          "name": "previousOwner",
          "type": "address"
        },
        {
          "indexed": true,
          "internalType": "address",
          "name": "newOwner",
          "type": "address"
        }
      ],
      "name": "OwnershipTransferred",
      "type": "event"
    },
    {
      "anonymous": false,
      "inputs": [
        {
          "indexed": false,
          "internalType": "uint256",
          "name": "vc_id",
          "type": "uint256"
        }
      ],
      "name": "VC_Revoked",
      "type": "event"
    },
    {
      "anonymous": false,
      "inputs": [
        {
          "indexed": false,
          "internalType": "uint256",
          "name": "vc_id",
          "type": "uint256"
        },
        {
          "indexed": false,
          "internalType": "address",
          "name": "extracted",
          "type": "address"
        },
        {
          "indexed": false,
          "internalType": "uint256",
          "name": "expiration",
          "type": "uint256"
        },
        {
          "indexed": false,
          "internalType": "uint256",
          "name": "block",
          "type": "uint256"
        }
      ],
      "name": "VC_added",
      "type": "event"
    },
    {
      "inputs": [
        {
          "internalType": "uint256",
          "name": "_vc_id",
          "type": "uint256"
        },
        {
          "internalType": "uint256",
          "name": "_expirationDate",
          "type": "uint256"
        },
        {
          "internalType": "uint256",
          "name": "_issuanceDate",
          "type": "uint256"
        },
        {
          "internalType": "bytes",
          "name": "_walletSignature",
          "type": "bytes"
        },
        {
          "internalType": "bytes",
          "name": "_challenge",
          "type": "bytes"
        }
      ],
      "name": "addUser",
      "outputs": [],
      "stateMutability": "nonpayable",
      "type": "function"
    },
    {
      "inputs": [],
      "name": "getFreeVCid",
      "outputs": [
        {
          "internalType": "uint256",
          "name": "",
          "type": "uint256"
        }
      ],
      "stateMutability": "view",
      "type": "function"
    },
    {
      "inputs": [
        {
          "internalType": "address",
          "name": "credentialHolder",
          "type": "address"
        }
      ],
      "name": "hasValidStatus",
      "outputs": [
        {
          "internalType": "bool",
          "name": "",
          "type": "bool"
        }
      ],
      "stateMutability": "view",
      "type": "function"
    },
    {
      "inputs": [
        {
          "internalType": "uint256",
          "name": "_credentialId",
          "type": "uint256"
        }
      ],
      "name": "isRevoked",
      "outputs": [
        {
          "internalType": "bool",
          "name": "",
          "type": "bool"
        }
      ],
      "stateMutability": "view",
      "type": "function"
    },
    {
      "inputs": [
        {
          "internalType": "address",
          "name": "credentialHolder",
          "type": "address"
        }
      ],
      "name": "isRevokedByAddr",
      "outputs": [
        {
          "internalType": "bool",
          "name": "",
          "type": "bool"
        }
      ],
      "stateMutability": "view",
      "type": "function"
    },
    {
      "inputs": [],
      "name": "owner",
      "outputs": [
        {
          "internalType": "address",
          "name": "",
          "type": "address"
        }
      ],
      "stateMutability": "view",
      "type": "function"
    },
    {
      "inputs": [],
      "name": "renounceOwnership",
      "outputs": [],
      "stateMutability": "nonpayable",
      "type": "function"
    },
    {
      "inputs": [
        {
          "internalType": "uint256",
          "name": "_vc_id",
          "type": "uint256"
        }
      ],
      "name": "revokeVC",
      "outputs": [],
      "stateMutability": "nonpayable",
      "type": "function"
    },
    {
      "inputs": [
        {
          "internalType": "address",
          "name": "newOwner",
          "type": "address"
        }
      ],
      "name": "transferOwnership",
      "outputs": [],
      "stateMutability": "nonpayable",
      "type": "function"
    }
  ],
  "bytecode": "0x60806040526001805534801561001457600080fd5b5061003161002661003660201b60201c565b61003e60201b60201c565b610102565b600033905090565b60008060009054906101000a900473ffffffffffffffffffffffffffffffffffffffff169050816000806101000a81548173ffffffffffffffffffffffffffffffffffffffff021916908373ffffffffffffffffffffffffffffffffffffffff1602179055508173ffffffffffffffffffffffffffffffffffffffff168173ffffffffffffffffffffffffffffffffffffffff167f8be0079c531659141344cd1fd0a4f28419497f9722a3daafe3b4186f6b6457e060405160405180910390a35050565b611eb3806101116000396000f3fe608060405234801561001057600080fd5b50600436106100935760003560e01c8063a2de812d11610066578063a2de812d1461010c578063c5acf7f514610128578063f2fde38b14610158578063f5d2fe8a14610174578063fd0aadae1461019257610093565b806348abc92f146100985780635ccc561e146100b4578063715018a6146100e45780638da5cb5b146100ee575b600080fd5b6100b260048036038101906100ad9190611146565b6101c2565b005b6100ce60048036038101906100c99190611146565b610315565b6040516100db919061118e565b60405180910390f35b6100ec610384565b005b6100f6610398565b60405161010391906111ea565b60405180910390f35b6101266004803603810190610121919061126a565b6103c1565b005b610142600480360381019061013d9190611352565b61086d565b60405161014f919061118e565b60405180910390f35b610172600480360381019061016d9190611352565b61093f565b005b61017c6109c2565b604051610189919061138e565b60405180910390f35b6101ac60048036038101906101a79190611352565b6109d4565b6040516101b9919061118e565b60405180910390f35b6101ca610b70565b6000600260008381526020019081526020016000209050600073ffffffffffffffffffffffffffffffffffffffff168160000160009054906101000a900473ffffffffffffffffffffffffffffffffffffffff1673ffffffffffffffffffffffffffffffffffffffff1603610274576040517f08c379a000000000000000000000000000000000000000000000000000000000815260040161026b90611452565b60405180910390fd5b61027d82610bee565b156102bd576040517f08c379a00000000000000000000000000000000000000000000000000000000081526004016102b4906114be565b60405180910390fd5b60018160030160006101000a81548160ff0219169083151502179055507fd0f64cba804554a1c9127cd4ed418c31de6e8982a58810a6387f0ff31f67137c82604051610309919061138e565b60405180910390a15050565b6000808211610359576040517f08c379a00000000000000000000000000000000000000000000000000000000081526004016103509061152a565b60405180910390fd5b6002600083815260200190815260200160002060030160009054906101000a900460ff169050919050565b61038c610b70565b6103966000610c5d565b565b60008060009054906101000a900473ffffffffffffffffffffffffffffffffffffffff16905090565b6103c9610b70565b600087101561040d576040517f08c379a0000000000000000000000000000000000000000000000000000000008152600401610404906115bc565b60405180910390fd5b600154871115610452576040517f08c379a000000000000000000000000000000000000000000000000000000000815260040161044990611628565b60405180910390fd5b600073ffffffffffffffffffffffffffffffffffffffff166002600089815260200190815260200160002060000160009054906101000a900473ffffffffffffffffffffffffffffffffffffffff1673ffffffffffffffffffffffffffffffffffffffff16146104f7576040517f08c379a00000000000000000000000000000000000000000000000000000000081526004016104ee906116e0565b60405180910390fd5b854210610539576040517f08c379a000000000000000000000000000000000000000000000000000000000815260040161053090611772565b60405180910390fd5b4285111561057c576040517f08c379a0000000000000000000000000000000000000000000000000000000008152600401610573906117de565b60405180910390fd5b600061058a83838787610d21565b9050600073ffffffffffffffffffffffffffffffffffffffff168173ffffffffffffffffffffffffffffffffffffffff16036105fb576040517f08c379a00000000000000000000000000000000000000000000000000000000081526004016105f29061184a565b60405180910390fd5b6000600360008373ffffffffffffffffffffffffffffffffffffffff1673ffffffffffffffffffffffffffffffffffffffff1681526020019081526020016000205490506000811415801561067157506002600082815260200190815260200160002060030160009054906101000a900460ff16155b156106b1576040517f08c379a00000000000000000000000000000000000000000000000000000000081526004016106a890611902565b60405180910390fd5b60405180608001604052808373ffffffffffffffffffffffffffffffffffffffff16815260200188815260200189815260200160001515815250600260008b815260200190815260200160002060008201518160000160006101000a81548173ffffffffffffffffffffffffffffffffffffffff021916908373ffffffffffffffffffffffffffffffffffffffff160217905550602082015181600101556040820151816002015560608201518160030160006101000a81548160ff021916908315150217905550905050600180600082825461078e9190611951565b9250508190555088600360008473ffffffffffffffffffffffffffffffffffffffff1673ffffffffffffffffffffffffffffffffffffffff168152602001908152602001600020819055507f0d1001cd50a7c5619e6832d99ec6e3dddf2f229ef4364d16a8d756d57d128ec189600260008c815260200190815260200160002060000160009054906101000a900473ffffffffffffffffffffffffffffffffffffffff16600260008d8152602001908152602001600020600201544260405161085a9493929190611985565b60405180910390a1505050505050505050565b600080600360008473ffffffffffffffffffffffffffffffffffffffff1673ffffffffffffffffffffffffffffffffffffffff16815260200190815260200160002054116108f0576040517f08c379a00000000000000000000000000000000000000000000000000000000081526004016108e790611a16565b60405180910390fd5b610938600360008473ffffffffffffffffffffffffffffffffffffffff1673ffffffffffffffffffffffffffffffffffffffff16815260200190815260200160002054610bee565b9050919050565b610947610b70565b600073ffffffffffffffffffffffffffffffffffffffff168173ffffffffffffffffffffffffffffffffffffffff16036109b6576040517f08c379a00000000000000000000000000000000000000000000000000000000081526004016109ad90611aa8565b60405180910390fd5b6109bf81610c5d565b50565b60006109cc610b70565b600154905090565b600080600360008473ffffffffffffffffffffffffffffffffffffffff1673ffffffffffffffffffffffffffffffffffffffff1681526020019081526020016000205411610a57576040517f08c379a0000000000000000000000000000000000000000000000000000000008152600401610a4e90611a16565b60405180910390fd5b610a9f600360008473ffffffffffffffffffffffffffffffffffffffff1673ffffffffffffffffffffffffffffffffffffffff16815260200190815260200160002054610e11565b15610adf576040517f08c379a0000000000000000000000000000000000000000000000000000000008152600401610ad690611b14565b60405180910390fd5b610b27600360008473ffffffffffffffffffffffffffffffffffffffff1673ffffffffffffffffffffffffffffffffffffffff16815260200190815260200160002054610bee565b15610b67576040517f08c379a0000000000000000000000000000000000000000000000000000000008152600401610b5e90611b80565b60405180910390fd5b60019050919050565b610b78610e75565b73ffffffffffffffffffffffffffffffffffffffff16610b96610398565b73ffffffffffffffffffffffffffffffffffffffff1614610bec576040517f08c379a0000000000000000000000000000000000000000000000000000000008152600401610be390611bec565b60405180910390fd5b565b6000808211610c32576040517f08c379a0000000000000000000000000000000000000000000000000000000008152600401610c299061152a565b60405180910390fd5b6002600083815260200190815260200160002060030160009054906101000a900460ff169050919050565b60008060009054906101000a900473ffffffffffffffffffffffffffffffffffffffff169050816000806101000a81548173ffffffffffffffffffffffffffffffffffffffff021916908373ffffffffffffffffffffffffffffffffffffffff1602179055508173ffffffffffffffffffffffffffffffffffffffff168173ffffffffffffffffffffffffffffffffffffffff167f8be0079c531659141344cd1fd0a4f28419497f9722a3daafe3b4186f6b6457e060405160405180910390a35050565b600080610d3086869050610e7d565b8686604051602001610d4493929190611d08565b6040516020818303038152906040528051906020012090506000806000610dae87878080601f016020809104026020016040519081016040528093929190818152602001838380828437600081840152601f19601f82011690508083019250505050505050610f4b565b92509250925060018482858560405160008152602001604052604051610dd79493929190611d6e565b6020604051602081039080840390855afa158015610df9573d6000803e3d6000fd5b50505060206040510351945050505050949350505050565b6000808211610e55576040517f08c379a0000000000000000000000000000000000000000000000000000000008152600401610e4c9061152a565b60405180910390fd5b600260008381526020019081526020016000206002015442119050919050565b600033905090565b606060006001610e8c84610fb3565b01905060008167ffffffffffffffff811115610eab57610eaa611db3565b5b6040519080825280601f01601f191660200182016040528015610edd5781602001600182028036833780820191505090505b509050600082602001820190505b600115610f40578080600190039150507f3031323334353637383961626364656600000000000000000000000000000000600a86061a8153600a8581610f3457610f33611de2565b5b04945060008503610eeb575b819350505050919050565b60008060006041845114610f94576040517f08c379a0000000000000000000000000000000000000000000000000000000008152600401610f8b90611e5d565b60405180910390fd5b6020840151925060408401519150606084015160001a90509193909250565b600080600090507a184f03e93ff9f4daa797ed6e38ed64bf6a1f0100000000000000008310611011577a184f03e93ff9f4daa797ed6e38ed64bf6a1f010000000000000000838161100757611006611de2565b5b0492506040810190505b6d04ee2d6d415b85acef8100000000831061104e576d04ee2d6d415b85acef8100000000838161104457611043611de2565b5b0492506020810190505b662386f26fc10000831061107d57662386f26fc10000838161107357611072611de2565b5b0492506010810190505b6305f5e10083106110a6576305f5e100838161109c5761109b611de2565b5b0492506008810190505b61271083106110cb5761271083816110c1576110c0611de2565b5b0492506004810190505b606483106110ee57606483816110e4576110e3611de2565b5b0492506002810190505b600a83106110fd576001810190505b80915050919050565b600080fd5b600080fd5b6000819050919050565b61112381611110565b811461112e57600080fd5b50565b6000813590506111408161111a565b92915050565b60006020828403121561115c5761115b611106565b5b600061116a84828501611131565b91505092915050565b60008115159050919050565b61118881611173565b82525050565b60006020820190506111a3600083018461117f565b92915050565b600073ffffffffffffffffffffffffffffffffffffffff82169050919050565b60006111d4826111a9565b9050919050565b6111e4816111c9565b82525050565b60006020820190506111ff60008301846111db565b92915050565b600080fd5b600080fd5b600080fd5b60008083601f84011261122a57611229611205565b5b8235905067ffffffffffffffff8111156112475761124661120a565b5b6020830191508360018202830111156112635761126261120f565b5b9250929050565b600080600080600080600060a0888a03121561128957611288611106565b5b60006112978a828b01611131565b97505060206112a88a828b01611131565b96505060406112b98a828b01611131565b955050606088013567ffffffffffffffff8111156112da576112d961110b565b5b6112e68a828b01611214565b9450945050608088013567ffffffffffffffff8111156113095761130861110b565b5b6113158a828b01611214565b925092505092959891949750929550565b61132f816111c9565b811461133a57600080fd5b50565b60008135905061134c81611326565b92915050565b60006020828403121561136857611367611106565b5b60006113768482850161133d565b91505092915050565b61138881611110565b82525050565b60006020820190506113a3600083018461137f565b92915050565b600082825260208201905092915050565b7f5265766f6b653a205643206173736f63696174656420746f207468652067697660008201527f656e2076635f696420646f6573206e6f742065786973742f697320696e76616c60208201527f6964000000000000000000000000000000000000000000000000000000000000604082015250565b600061143c6042836113a9565b9150611447826113ba565b606082019050919050565b6000602082019050818103600083015261146b8161142f565b9050919050565b7f564320697320616c7265616479207265766f6b65640000000000000000000000600082015250565b60006114a86015836113a9565b91506114b382611472565b602082019050919050565b600060208201905081810360008301526114d78161149b565b9050919050565b7f43726564656e7469616c206964206e6f742076616c6964000000000000000000600082015250565b60006115146017836113a9565b915061151f826114de565b602082019050919050565b6000602082019050818103600083015261154381611507565b9050919050565b7f5643206964656e7469746966696572206d75737420626520677265617465722060008201527f7468616e20300000000000000000000000000000000000000000000000000000602082015250565b60006115a66026836113a9565b91506115b18261154a565b604082019050919050565b600060208201905081810360008301526115d581611599565b9050919050565b7f526563656976656420564320696420697320696e76616c696400000000000000600082015250565b60006116126019836113a9565b915061161d826115dc565b602082019050919050565b6000602082019050818103600083015261164181611605565b9050919050565b7f56432068617320616c72656164792061205643206f776e65723a20726571756560008201527f737420616c72656164792073746f7265642c2072656d656d62657220746f206160208201527f6374697661746520697400000000000000000000000000000000000000000000604082015250565b60006116ca604a836113a9565b91506116d582611648565b606082019050919050565b600060208201905081810360008301526116f9816116bd565b9050919050565b7f476f7420696e76616c69642f657870697265642065787069726174696f6e206460008201527f6174650000000000000000000000000000000000000000000000000000000000602082015250565b600061175c6023836113a9565b915061176782611700565b604082019050919050565b6000602082019050818103600083015261178b8161174f565b9050919050565b7f49737375616e6365206461746520697320696e20746865206675747572650000600082015250565b60006117c8601e836113a9565b91506117d382611792565b602082019050919050565b600060208201905081810360008301526117f7816117bb565b9050919050565b7f496e76616c696420457874726163746564206164647265737300000000000000600082015250565b60006118346019836113a9565b915061183f826117fe565b602082019050919050565b6000602082019050818103600083015261186381611827565b9050919050565b7f547279696e6720746f2069737375652061207365636f6e6420564320746f207460008201527f68652073616d6520686f6c64657220686176696e67207468652066697273742060208201527f5643207374696c6c206e6f74207265766f6b6564000000000000000000000000604082015250565b60006118ec6054836113a9565b91506118f78261186a565b606082019050919050565b6000602082019050818103600083015261191b816118df565b9050919050565b7f4e487b7100000000000000000000000000000000000000000000000000000000600052601160045260246000fd5b600061195c82611110565b915061196783611110565b925082820190508082111561197f5761197e611922565b5b92915050565b600060808201905061199a600083018761137f565b6119a760208301866111db565b6119b4604083018561137f565b6119c1606083018461137f565b95945050505050565b7f486f6c64657220646f6573206e6f74206f776e20612063726564656e7469616c600082015250565b6000611a006020836113a9565b9150611a0b826119ca565b602082019050919050565b60006020820190508181036000830152611a2f816119f3565b9050919050565b7f4f776e61626c653a206e6577206f776e657220697320746865207a65726f206160008201527f6464726573730000000000000000000000000000000000000000000000000000602082015250565b6000611a926026836113a9565b9150611a9d82611a36565b604082019050919050565b60006020820190508181036000830152611ac181611a85565b9050919050565b7f43726564656e7469616c20686173206578706972656400000000000000000000600082015250565b6000611afe6016836113a9565b9150611b0982611ac8565b602082019050919050565b60006020820190508181036000830152611b2d81611af1565b9050919050565b7f43726564656e7469616c206973207265766f6b65640000000000000000000000600082015250565b6000611b6a6015836113a9565b9150611b7582611b34565b602082019050919050565b60006020820190508181036000830152611b9981611b5d565b9050919050565b7f4f776e61626c653a2063616c6c6572206973206e6f7420746865206f776e6572600082015250565b6000611bd66020836113a9565b9150611be182611ba0565b602082019050919050565b60006020820190508181036000830152611c0581611bc9565b9050919050565b600081905092915050565b7f19457468657265756d205369676e6564204d6573736167653a0a000000000000600082015250565b6000611c4d601a83611c0c565b9150611c5882611c17565b601a82019050919050565b600081519050919050565b60005b83811015611c8c578082015181840152602081019050611c71565b60008484015250505050565b6000611ca382611c63565b611cad8185611c0c565b9350611cbd818560208601611c6e565b80840191505092915050565b600081905092915050565b82818337600083830152505050565b6000611cef8385611cc9565b9350611cfc838584611cd4565b82840190509392505050565b6000611d1382611c40565b9150611d1f8286611c98565b9150611d2c828486611ce3565b9150819050949350505050565b6000819050919050565b611d4c81611d39565b82525050565b600060ff82169050919050565b611d6881611d52565b82525050565b6000608082019050611d836000830187611d43565b611d906020830186611d5f565b611d9d6040830185611d43565b611daa6060830184611d43565b95945050505050565b7f4e487b7100000000000000000000000000000000000000000000000000000000600052604160045260246000fd5b7f4e487b7100000000000000000000000000000000000000000000000000000000600052601260045260246000fd5b7f696e76616c6964207369676e6174757265206c656e6774680000000000000000600082015250565b6000611e476018836113a9565b9150611e5282611e11565b602082019050919050565b60006020820190508181036000830152611e7681611e3a565b905091905056fea2646970667358221220829bdaca0820716a8e072cf4204e38fc815f4d3feeb5bac8a69c0406ad58767a64736f6c63430008120033",
  "linkReferences": {},
  "deployedLinkReferences": {}
}